:100000000C9434000C943E000C943E000C943E0082
:100010000C943E000C943E000C943E000C943E0068
:100020000C943E000C943E000C943E000C943E0058
:100030000C943E000C943E000C943E000C943E0048
:100040000C943E000C943E000C943E000C943E0038
:100050000C943E000C943E000C943E000C943E0028
:100060000C943E000C943E0011241FBECFEFD8E04C
:10007000DEBFCDBF0E946C000C9485000C94000084
:1000800085E58BB92FEF86E791E0215080409040C5
:10009000E1F700C000008AEA8BB92FEF86E791E014
:1000A000215080409040E1F700C000001BB8089547
:1000B000009709F40895EFE9FFE03197F1F700C0E8
:1000C00000000197F5CF009709F4089525E02A95DF
:1000D000F1F700000197F7CF8FEF8AB9C5E0D0E0C4
:1000E000CC3281E0D80738F40E944000CE010E9453
:1000F00058002596F5CF0E944000CE010E9458007E
:0E0100002597C630D10560F3F6CFF894FFCFF7
:00000001FF
