:100000000C9434000C943E000C943E000C943E0082
:100010000C943E000C943E000C943E000C943E0068
:100020000C943E000C943E000C943E000C943E0058
:100030000C943E000C943E000C943E000C943E0048
:100040000C943E000C943E000C943E000C943E0038
:100050000C943E000C943E000C943E000C943E0028
:100060000C943E000C943E0011241FBECFEFD8E04C
:10007000DEBFCDBF0E9440000C9460000C940000D5
:100080008FEF8AB991E020E89BB98BB181110EC046
:100090002BB98BB18823C1F3EFE5FAEE3197F1F775
:1000A00000C000008BB186958BB9F3CFEFE5FAEE77
:1000B0003197F1F700C000008BB1880F8BB9E5CF05
:0400C000F894FFCFE2
:00000001FF
