:100000000C9434000C943E000C943E000C943E0082
:100010000C943E000C943E000C943E000C943E0068
:100020000C943E000C943E000C943E000C943E0058
:100030000C943E000C943E000C943E000C943E0048
:100040000C943E000C943E000C943E000C943E0038
:100050000C943E000C943E000C943E000C943E0028
:100060000C943E000C943E0011241FBECFEFD8E04C
:10007000DEBFCDBF0E9440000C9466000C940000CF
:100080008FEF8AB991E020E89BB98BB1811111C043
:100090002BB98BB18823C1F33FEF44E684E03150A4
:1000A00040408040E1F700C000008BB186958BB9DD
:1000B000F0CF3FEF44E684E0315040408040E1F72C
:1000C00000C000008BB1880F8BB9DFCFF894FFCF51
:00000001FF
