:100000000C9434000C943E000C943E000C943E0082
:100010000C943E000C943E000C943E000C943E0068
:100020000C943E000C943E000C943E000C943E0058
:100030000C943E000C943E000C943E000C943E0048
:100040000C943E000C943E000C943E000C943E0038
:100050000C943E000C943E000C943E000C943E0028
:100060000C943E000C943E0011241FBECFEFD8E04C
:10007000DEBFCDBF0E946C000C948C000C9400007D
:1000800085E58BB92FEF86E791E0215080409040C5
:10009000E1F700C000008AEA8BB92FEF86E791E014
:1000A000215080409040E1F700C000001BB8089547
:1000B000009709F40895EFE9FFE03197F1F700C0E8
:1000C00000000197F5CF009709F4089525E02A95DF
:1000D000F1F700000197F7CF8FEF8AB991E020E8A0
:1000E0009BB98BB181110EC02BB98BB18823C1F3A1
:1000F000EFE5FAEE3197F1F700C000008BB186957D
:100100008BB9F3CFEFE5FAEE3197F1F700C00000BD
:0C0110008BB1880F8BB9E5CFF894FFCFBE
:00000001FF
