:100000000C9434000C9449000C9449000C94490061
:100010000C9449000C9449000C9449000C9449003C
:100020000C9449000C9449000C9449000C9449002C
:100030000C9449000C9449000C9449000C9449001C
:100040000C9449000C9449000C9449000C9449000C
:100050000C9449000C9449000C9449000C944900FC
:100060000C9449000C94490011241FBECFEFD8E036
:10007000DEBFCDBF11E0A0E0B1E0E2ECF0E002C0F5
:1000800005900D92AA30B107D9F70E944B000C944D
:100090005F000C9400008FEF84B9E0E0F1E0819103
:1000A00085B92FEF89E698E1215080409040E1F733
:1000B00000C0000021E0EA30F20789F7EECFF894A3
:0200C000FFCF70
:0A00C200BB21EAE371D3DB23FFF753
:00000001FF
