:100000000C9434000C9449000C9449000C94490061
:100010000C9449000C9449000C9449000C9449003C
:100020000C9449000C9449000C9449000C9449002C
:100030000C9449000C9449000C9449000C9449001C
:100040000C9449000C9449000C9449000C9449000C
:100050000C9449000C9449000C9449000C944900FC
:100060000C9449000C94490011241FBECFEFD8E036
:10007000DEBFCDBF11E0A0E0B1E0E0EEF0E002C0F5
:1000800005900D92AA30B107D9F70E944B000C944D
:100090006E000C9400008FEF84B98AB9E0E0F1E0C3
:1000A00080E090E02BB12F732BB98430910511F4CF
:1000B0005E9A04C08530910509F45F9A219125B9B3
:1000C0002FEF39E648E1215030404040E1F700C0D1
:1000D000000001968A30910529F7E0CFF894FFCF10
:0A00E000BB21EAE371D3DB23FBF33D
:00000001FF
