:100000000C9434000C9449000C9449000C94490061
:100010000C9449000C9449000C9449000C9449003C
:100020000C9449000C9449000C9449000C9449002C
:100030000C9449000C9449000C9449000C9449001C
:100040000C9449000C9449000C9449000C9449000C
:100050000C9449000C9449000C9449000C944900FC
:100060000C9449000C94490011241FBECFEFD8E036
:10007000DEBFCDBF11E0A0E0B1E0E0E6F1E002C0FC
:1000800005900D92AA30B107D9F70E9479000C941F
:10009000AE000C9400002AE030E0B9010E94860016
:1000A000FC01CB01B9010E94860022E330E0DF01B0
:1000B000A050BF4FFC01E050FF4F8BB18F738BB945
:1000C0005E9A8C9185B98FE19EE40197F1F700C0AB
:1000D00000009BB19F739BB95F9A808185B98FE1C6
:1000E0009EE40197F1F700C000002150310929F783
:1000F00008958FEF84B98AB9C0E0D0E0CE010E94A4
:100100004B002196C436D105C9F7F6CF97FB072ED1
:1001100016F4009407D077FD09D00E949A0007FCDE
:1001200005D03EF4909581959F4F08957095619507
:100130007F4F0895AA1BBB1B51E107C0AA1FBB1F1D
:10014000A617B70710F0A61BB70B881F991F5A9563
:10015000A9F780959095BC01CD010895F894FFCF43
:0A016000BB21EAE371D3DB23FBF3BC
:00000001FF
