:100000000C9434000C943E000C943E000C943E0082
:100010000C943E000C943E000C943E000C943E0068
:100020000C943E000C943E000C943E000C943E0058
:100030000C943E000C943E000C943E000C943E0048
:100040000C943E000C943E000C943E000C943E0038
:100050000C943E000C943E000C943E000C943E0028
:100060000C943E000C943E0011241FBECFEFD8E04C
:10007000DEBFCDBF0E9440000C946F000C940000C6
:100080008FEF8AB935ED2BEF94E18FE23BB94FEF5B
:1000900055EA6EE0415050406040E1F700C000007A
:1000A0002BB94FEF55EA6EE0415050406040E1F708
:1000B00000C000009BB94FEF55EA6EE04150504040
:1000C0006040E1F700C000008BB94FEF55EA6EE0E9
:1000D000415050406040E1F700C00000D7CFF89495
:0200E000FFCF50
:00000001FF
