:100000000C9434000C9446000C9446000C9446006A
:100010000C9446000C9446000C9446000C94460048
:100020000C9446000C9446000C9446000C94480036
:100030000C9446000C9446000C9446000C94460028
:100040000C9446000C9446000C9446000C94460018
:100050000C9446000C9446000C9446000C94460008
:100060000C9446000C94460011241FBECFEFD8E03C
:10007000DEBFCDBF21E0A0E0B1E001C01D92A23003
:10008000B207E1F70E946B000C9480000C94000012
:100090001F920F920FB60F9211248F939F9380910E
:1000A0000001909101010196853691055CF49093D1
:1000B0000101809300019F918F910F900FBE0F90CF
:1000C0001F901895109201011092000185B191E0E6
:1000D000892785B9F0CF81E084B988E080938100D9
:1000E0008CE990E0909389008093880082E080936F
:1000F0006F00789480918100856080938100FFCFAC
:04010000F894FFCFA1
:00000001FF
