:100000000C9434000C9451000C9451000C94510049
:100010000C9451000C9451000C9451000C9451001C
:100020000C9451000C9451000C9451000C9451000C
:100030000C9451000C9451000C9453000C945100FA
:100040000C9451000C9451000C9451000C945100EC
:100050000C9451000C9451000C9451000C945100DC
:100060000C9451000C94510011241FBECFEFD8E026
:10007000DEBFCDBF11E0A0E0B1E0E0E3F1E002C0FF
:1000800005900D92A230B107D9F721E0A2E0B1E0CE
:1000900001C01D92A430B207E1F70E9489000C94C0
:1000A00096000C9400001F920F920FB60F9211242D
:1000B0002F933F934F935F936F938F939F93809171
:1000C0000201909103010196909303018093020134
:1000D000409100015091010164E6649F9001659F89
:1000E000300D11242817390744F41092030110929F
:1000F000020185B191E0892785B99F918F916F9118
:100100005F914F913F912F910F900FBE0F901F90D5
:10011000189581E084B982E084BD9CE997BD809305
:100120006E0085E085BD789485BDFFCFF894FFCF44
:020130000500C8
:00000001FF
