:100000000C941B020C942D020C942D020C942D02C6
:100010000C942D020C942D020C942D020C942D02A4
:100020000C942D020C942D020C942D020C942D0294
:100030000C942D020C942D020C942D020C942D0284
:100040000C942D020C942D020C942D020C942D0274
:100050000C942D020C942D020C942D020C942D0264
:100060000C942D020C942D02476F746F205465730D
:10007000740054657374000000000000000000006C
:100080000000000000000000000000000000000070
:100090000000000000000000000000000000000060
:1000A0000000000000000000000000000000000050
:1000B0000000000000000000000000000000000040
:1000C0000000000000000000000000000000000030
:1000D00000000000C020202020202020202020C060
:1000E000000000000000000000F010101010E00000
:1000F00000F0000080404040800000804040408090
:10010000000080404040800000804040408000006F
:1001100000000000000000000000000000000000DF
:1001200000000000000000000F113131D1F1D1D1E9
:100130003111110F0000000000000000001F01013C
:1001400001010000001F00000F1212120B00000C32
:1001500012120A1F0000091212120C00000F1212D4
:10016000120B000000000000000000000000000072
:10017000000000000000000000000000F01886866B
:10018000E1F1E1E1861818F0000000000000000035
:1001900000000060800080608000806000402020BF
:1001A00020C00000E80020F820000000000000004F
:1001B000000000000000000000000000000000003F
:1001C000000000000000000000000000000000002F
:1001D00003070707070707070707070300000000D3
:1001E0000000000000000000030C0300030C0300EB
:1001F00000060909050F00000F00000F08000000AD
:1002000000080000080000080000000000000000D6
:1002100000000000000000000000000000000000DE
:1002200000000000000000000000000000000000CE
:1002300000000000000000000000000000000000BE
:1002400000000000000000000000000000000000AE
:10025000000000000000000000000000000000009E
:10026000000000000000000000000000000000008E
:100270000000000000002F00000007000700147FAE
:10028000147F14242A7F2A12C4C8102646364955E2
:1002900022500005030000001C2241000041221CE6
:1002A0000014083E081408083E08080000503000FA
:1002B0001010101010006060000020100804023EB2
:1002C0005149453E00427F4000426151494621412B
:1002D000454B311814127F1027454545393C4A4992
:1002E000493001710905033649494936064949290A
:1002F0001E00363600000056360000081422410069
:100300001414141414004122140802015109063275
:100310004959513E7E1111117E7F494949363E416E
:100320004141227F4141221C7F494949417F0909BE
:1003300009013E4149497A7F0808087F00417F4111
:10034000002040413F017F081422417F404040404F
:100350007F020C027F7F0408107F3E4141413E7FB7
:10036000090909063E4151215E7F0919294646497E
:1003700049493101017F01013F4040403F1F20407A
:10038000201F3F4038403F6314081463070870087B
:10039000076151494543007F414100552A552A557F
:1003A0000041417F000402010204404040404000FF
:1003B0000102040020545454787F4844443838449F
:1003C000444420384444487F3854545418087E0923
:1003D00001020C5252523E7F0804047800447D40D2
:1003E000002040443D007F1028440000417F400031
:1003F0007C041804787C0804047838444444387C2D
:1004000014141408081414187C7C080404084854B4
:10041000545420043F4440203C4040207C1C204059
:10042000201C3C4030403C44281028440C50505084
:100430003C4464544C4411241FBECFEFD8E0DEBFCF
:10044000CDBF22E0A0E0B1E001C01D92AE3FB207F7
:10045000E1F70E94AC050C9425060C9400002A9844
:100460006130710539F4289A8EBD0DB407FEFDCFB9
:100470002A9A08952898F8CFCF93C82F60E070E0AB
:1004800081E20E942F0260E070E08C2F80680E9461
:100490002F0260E070E080E2CF910C942F0288EF91
:1004A00091E0E6E0F1E0DF019C011D922150304037
:1004B000E1F7109203011092020187EF91E090930F
:1004C00001018093000108958F30D8F46730C8F49B
:1004D00090E0019746E0489F9001499F300D11241C
:1004E00070E06150710944E5469FC001479F900D3F
:1004F0001124820F931F909305018093040180E0E3
:10050000089581E008950F931F93CF93DF93209177
:10051000040130910501409102015091030124171B
:10052000350724F4309303012093020140EE460F77
:100530004C3508F06CE58130910509F042C070E05F
:100540006052710985E0869FA001879F500D11249C
:10055000D901AA5FBE4F80E090E0FA01E80FF91FD1
:10056000E159FD4FE491EE0FED9301968530910531
:10057000A1F72B5F3F4F3093050120930401809139
:10058000040190910501209100013091010128178B
:10059000390724F49093010180930001FC01EA5F84
:1005A000FE4F1082873FF1E09F0709F07CC0109258
:1005B00005011092040182E0DF91CF911F910F910C
:1005C00008950297E1F6C90184559109409102010D
:1005D000509103018417950724F4909303018093AD
:1005E000020197FD67C070E06052710985E0869F47
:1005F000A001879F500D1124D901AA5FBE4F80E052
:1006000090E0DCE0C8E1FC01E40FF51FE159FD4F8B
:10061000E491EE0F6E2F6270762F770F760F770FC3
:100620006E2F64706D9F602D1124762B6E2F687075
:100630006C9F602D1124762BE295EF70FE2FF270E7
:100640006F2F660F6F0F660F1E2F1170F12FFF0FA8
:10065000F10F6F2BFE2FF470FD9FF02D11246F2BE7
:10066000E870EC9FE02D11246E2B8D0104551109CB
:10067000F80170830F5F1F4FF80170836C93119620
:100680006C931197019612968530910509F0BBCFB6
:10069000C9010B9668EF71E00E94F4059093050183
:1006A000809304016CCF019690930501809304011F
:1006B00080E082CF81E080CFEF92FF920F931F9373
:1006C000CF937C018B01C0E0F801EC0FF11D80811C
:1006D000811106C0CF911F910F91FF90EF90089567
:1006E000682FC7010E9483028130A1F3CF5FECCF56
:1006F0000F931F93CF93DF938C01EB01FE01849145
:10070000811105C0DF91CF911F910F910895682F3E
:10071000C8010E9483028130A9F32196EFCF85356D
:1007200008F04AC0613308F047C0262F2695269569
:10073000269590E034E5239F800D911D112467706C
:10074000FC01EA5FFE4F20814115510509F541E0AA
:1007500050E001C0440F6A95EAF7409524232083B6
:1007600020910201309103018217930720F49093A6
:1007700003018093020120910001309101012817AB
:10078000390720F4909301018093000180E00895DF
:100790004130510531F401C0440F6A95EAF7242B2A
:1007A000DECF42305105D9F641E050E001C0440FA0
:1007B0006A95EAF72427D3CF81E008955F926F927C
:1007C0007F928F929F92AF92BF92CF92DF92EF92E1
:1007D000FF920F931F93CF93DF93C82E762ED42EC4
:1007E000522EE22EF12CE41AF108C62FD0E0C81BDD
:1007F000D109F7FE34C0F194E194F10888248A9479
:10080000D7FF30C0D195C195D10966246A94A8015B
:100810006D2D8C2D0E948F03982E81110FC0CC0F4F
:10082000DD1FEE0CFF1CEC16FD0684F5CE01959540
:1008300087955701A81AB90AC71017C0892DDF91EB
:10084000CF911F910F91FF90EF90DF90CF90BF90CD
:10085000AF909F908F907F906F905F9008958824C5
:100860008394CECF66246394D2CFB7FC03C0D80C58
:10087000AC1ABD0AC60CAE0CBF1CA8016D2D8C2D88
:100880000E948F038823C1F2982ED8CFC701959577
:1008900087955E01A81AB90AD51481F2B7FC03C086
:1008A000C60CAE18BF08D80CAC0EBD1EA8016D2D2D
:1008B0008C2D0E948F03882379F3E6CFCF92DF92AD
:1008C000EF92FF920F931F93CF93DF93C82ED62EF4
:1008D00084E58C1500F180E38617E8F0641750F08A
:1008E000C62FC41BE22EF12CEC0CF11CCD15E8F444
:1008F000DC2D0AC0C0E0F6CFA8016C2F8D2F0E941E
:100900008F03811109C0DF5F8D2F90E08E159F0549
:100910009CF3CF5FEBCF81E0DF91CF911F910F91DF
:10092000FF90EF90DF90CF90089580E0F5CFAF92E9
:10093000BF92CF92DF92EF92FF920F931F93CF93CC
:10094000DF93E42EA22E22E0B22EB40EEC016C0155
:10095000C60ED11C35E0F32E90E0CC15DD0511F468
:1009600080E003C0953560F081E0DF91CF911F9169
:100970000F91FF90EF90DF90CF90BF90AF900895D0
:1009800049914A9D402D112401E010E02E2D66E290
:100990008F2D0E945E042F2D2B0D9F2D813021F372
:1009A000F22EDBCFDF92EF92FF920F931F93CF9344
:1009B000DF93F82EE62EC42FD22E84E58F1518F182
:1009C000861708F14133F8F480E38217E0F0F61659
:1009D00048F080E0DF91CF911F910F91FF90EF9051
:1009E000DF9008954217A8F7DF2DA8016C2F8D2FF7
:1009F0000E948F038111EECFDF5FED12F6CFCF5F44
:100A0000DC12F2CFE6CF81E0E5CF48EF51E0BC0148
:100A100086E091E00E941C061092030110920201F0
:100A200087EF91E0909301018093000108951F9357
:100A3000CF93DF93809102019091030197FF3DC016
:100A40001092030110920201809100019091010126
:100A500097FF3DC01092010110920001C091020168
:100A6000D0910301CE0164E570E00E94F405162FD9
:100A700060E070E080680E942F0260E070E0812FEB
:100A800080640E942F02CA5FDE4F209100013091E6
:100A90000101CE01865091402817390714F587EFE0
:100AA00091E0909303018093020110920101109252
:100AB0000001DF91CF911F910895883F914024F26A
:100AC00087EF91E09093030180930201BDCF883FAF
:100AD000914024F287EF91E090930101809300010F
:100AE000BDCF61E070E089910E942F02CECF2C9A99
:100AF00084B18D6384B92C982C9A80E58CBD2A9A98
:100B000060E070E081E20E942F0260E070E088EC1B
:100B10000E942F0260E070E086E00E942F0260E0F9
:100B200070E083E10E942F0260E070E080E20E94AA
:100B30002F0260E070E08CE00E942F0288EF91E0CD
:100B40009093030180930201109201011092000121
:100B50000E944F020C9417050E9477058FE70E94B0
:100B60003C020E944F0287E790E00E9405050E9428
:100B700017052FEF81E19AE7215080409040E1F77F
:100B800000C0000080E00E943C020E9417052FEF89
:100B900081E19AE7215080409040E1F700C00000D9
:100BA0000E944F0261E081E00E94640262E770E00F
:100BB00081E090E00E94780362E081E00E9464029C
:100BC00068E670E081E090E00E9478030E941705DB
:100BD0002FEF83E294EF215080409040E1F700C076
:100BE000000080E090E0089597FB072E16F4009433
:100BF00007D077FD09D00E94080607FC05D03EF417
:100C0000909581959F4F0895709561957F4F0895B8
:100C1000AA1BBB1B51E107C0AA1FBB1FA617B70722
:100C200010F0A61BB70B881F991F5A95A9F780953E
:100C30009095BC01CD010895FB01DC0102C0059037
:0E0C40000D9241505040D8F70895F894FFCF20
:00000001FF
