:100000000C9434000C9446000C9446000C9446006A
:100010000C9446000C9446000C9446000C94460048
:100020000C9446000C9446000C9446000C94460038
:100030000C9446000C9446000C9446000C94460028
:100040000C9446000C9446000C9446000C94460018
:100050000C9446000C9446000C9446000C94460008
:100060000C9446000C94460011241FBECFEFD8E03C
:10007000DEBFCDBF21E0A0E0B1E001C01D92A13004
:10008000B207E1F70E9448000C9407010C940000AD
:100090008FEF8AB921E030E88AEA2BB99BB1992326
:1000A00069F04FE759EA93E0415050409040E1F742
:1000B00000C000009BB1990F9BB9F0CF3BB99BB139
:1000C000992369F04FE759EA93E04150504090403E
:1000D000E1F700C000009BB196959BB9F0CF1BB82B
:1000E0004FE75AE196E0415050409040E1F700C0A0
:1000F00000008BB94FE759EA93E0415050409040DF
:10010000E1F700C000001BB84FE75AE196E041500C
:1001100050409040E1F700C000008BB94FE759EA2A
:1001200093E0415050409040E1F700C000001BB800
:100130004FE75AE196E0415050409040E1F700C04F
:1001400000002BB99BB1992369F04FE759EA93E07E
:10015000415050409040E1F700C000009BB1990F22
:100160009BB9F0CF3BB99BB1992369F04FE759EAAE
:1001700093E0415050409040E1F700C000009BB137
:1001800096959BB9F0CF1BB84FE75AE196E04150E6
:1001900050409040E1F700C000008BB94FE759EAAA
:1001A00093E0415050409040E1F700C000001BB880
:1001B0004FE75AE196E0415050409040E1F700C0CF
:1001C00000008BB94FE759EA93E04150504090400E
:1001D000E1F700C000001BB84FE75AE196E041503C
:1001E00050409040E1F700C000001BB89BB19F3F1A
:1001F00009F453CF4FE75AE196E041505040904008
:10020000E1F700C000009BB19F5F9BB9EFCFF8946E
:02021000FFCF1E
:00000001FF
