:100000000C9434000C943E000C943E000C943E0082
:100010000C943E000C943E000C943E000C943E0068
:100020000C943E000C943E000C943E000C943E0058
:100030000C943E000C943E000C943E000C943E0048
:100040000C943E000C943E000C943E000C943E0038
:100050000C943E000C943E000C943E000C943E0028
:100060000C943E000C943E0011241FBECFEFD8E04C
:10007000DEBFCDBF0E9440000C94E8000C9400004D
:100080008FEF8AB980E021E030E8B1E1A2E2F3E34A
:10009000E4E475E566E657E748E82BB99BB19111B2
:1000A00063C03BB99BB191116CC02BB99BB191114D
:1000B00075C03BB99BB191117EC084300CF052C029
:1000C0008F5FBBB99FEFC0E7D2E09150C040D040F6
:1000D000E1F700C00000ABB99FEFC0E7D2E091505C
:1000E000C040D040E1F700C00000FBB99FEFC0E77F
:1000F000D2E09150C040D040E1F700C00000EBB921
:100100009FEFC0E7D2E09150C040D040E1F700C07F
:1001100000007BB99FEFC0E7D2E09150C040D040D3
:10012000E1F700C000006BB99FEFC0E7D2E091504B
:10013000C040D040E1F700C000005BB99FEFC0E7CE
:10014000D2E09150C040D040E1F700C000004BB970
:100150009FEFC3ECD9E09150C040D040E1F700C020
:1001600000009BCF80E099CF9FEFC1EED4E091508B
:10017000C040D040E1F700C000009BB1990F9BB98F
:100180008DCF9FEFC1EED4E09150C040D040E1F759
:1001900000C000009BB196959BB984CF9FEFC1EE44
:1001A000D4E09150C040D040E1F700C000009BB1C6
:1001B000990F9BB97BCF9FEFC1EED4E09150C04027
:1001C000D040E1F700C000009BB196959BB972CF7B
:0401D000F894FFCFD1
:00000001FF
