:100000000C9434000C943E000C943E000C943E0082
:100010000C943E000C943E000C943E000C943E0068
:100020000C943E000C943E000C943E000C943E0058
:100030000C943E000C943E000C943E000C943E0048
:100040000C943E000C943E000C943E000C943E0038
:100050000C943E000C943E000C943E000C943E0028
:100060000C943E000C943E0011241FBECFEFD8E04C
:10007000DEBFCDBF0E9440000C947B000C940000BA
:100080008FEF8AB995E520E831E09BB94FEF53ED4A
:1000900080E3415050408040E1F700C000002BB9A0
:1000A0008BB181111BC09BB94FEF53ED80E34150E1
:1000B00050408040E1F700C000003BB98BB188237D
:1000C00021F34FEF53ED80E3415050408040E1F782
:1000D00000C000008BB1880F8BB9F0CF4FEF53ED0C
:1000E00080E3415050408040E1F700C000008BB1F8
:0A00F00086958BB9D5CFF894FFCFA9
:00000001FF
