:100000000C9434000C943E000C943E000C943E0082
:100010000C943E000C943E000C943E000C943E0068
:100020000C943E000C943E000C943E000C943E0058
:100030000C943E000C943E000C943E000C943E0048
:100040000C943E000C943E000C943E000C943E0038
:100050000C943E000C943E000C943E000C943E0028
:100060000C943E000C943E0011241FBECFEFD8E04C
:10007000DEBFCDBF0E9466000C947F000C94000090
:1000800085E58BB98FE59AEE0197F1F700C0000086
:100090008AEA8BB98FE59AEE0197F1F700C000006C
:1000A0001BB80895009741F0EFECF7E03197F1F7B6
:1000B00000C000000197F6CF0895009731F022E0CC
:1000C0002A95F1F700C00197F8CF08958FEF8AB90C
:1000D000C5E0D0E0CC3281E0D80738F40E9440007F
:1000E000CE010E9452002596F5CF0E944000CE011D
:1000F0000E9452002597C630D10560F3F6CFF894E0
:02010000FFCF2F
:00000001FF
