:100000000C9434000C9451000C9451000C94510049
:100010000C9451000C9451000C9451000C9451001C
:100020000C9451000C9451000C9451000C9451000C
:100030000C9451000C9451000C9451000C945100FC
:100040000C9451000C9451000C9451000C945100EC
:100050000C9451000C9451000C9451000C945100DC
:100060000C9451000C94510011241FBECFEFD8E026
:10007000DEBFCDBF11E0A0E0B1E0ECECF1E002C0EA
:1000800005900D92A431B107D9F721E0A4E1B1E0C8
:1000900001C01D92A631B207E1F70E947E000C94C8
:1000A000E4000C9400009C016AE070E00E94D00023
:1000B000AC01232B11F09B0102C020E030E0220FA5
:1000C000331FF901E050FF4F80818BB980E485B97F
:1000D0008FE19EE40197F1F700C00000FA01EE0FF6
:1000E000FF1FE050FF4F80818BB980E885B98FE119
:1000F0009EE40197F1F700C0000008958FEF8AB9E0
:1001000084B910EC01E080E8F82EC3E6D0E015B920
:100110000BB98BB1882369F02FEF84E39CE0215069
:1001200080409040E1F700C000008BB1880F8BB990
:10013000F0CFFBB82FEF81E19AE72150804090404B
:10014000E1F700C000001092150110921401809197
:100150001401909115018436910560F40E945300BA
:10016000809114019091150101969093150180934F
:100170001401EDCFD0931501C093140180911401A7
:1001800090911501009719F20E945300809114017B
:100190009091150101979093150180931401EECF72
:1001A000AA1BBB1B51E107C0AA1FBB1FA617B7079D
:1001B00010F0A61BB70B881F991F5A95A9F78095B9
:0C01C0009095BC01CD010895F894FFCF8C
:1001CC003F0006005B004F0066006D007D000700DD
:0401DC007F006F0031
:00000001FF
