:100000000C9434000C943E000C943E000C943E0082
:100010000C943E000C943E000C943E000C943E0068
:100020000C943E000C943E000C943E000C943E0058
:100030000C943E000C943E000C943E000C943E0048
:100040000C943E000C943E000C943E000C943E0038
:100050000C943E000C943E000C943E000C943E0028
:100060000C943E000C943E0011241FBECFEFD8E04C
:10007000DEBFCDBF0E944F000C9463000C940000C3
:1000800084B18C6284B981E58CBD08958EBD0DB4B8
:1000900007FEFDCF8EB508958FEF0C9446000E94A9
:1000A00040002A9A80E095B19B6F95B9C1E0C80FD6
:1000B0000E9446002A9A8FE39CE90197F1F700C05D
:0A00C00000008C2FF0CFF894FFCF62
:00000001FF
