:100000000C9434000C943E000C943E000C943E0082
:100010000C943E000C943E000C943E000C943E0068
:100020000C943E000C943E000C943E000C943E0058
:100030000C943E000C943E000C943E000C943E0048
:100040000C943E000C943E000C943E000C943E0038
:100050000C943E000C943E000C943E000C943E0028
:100060000C943E000C943E0011241FBECFEFD8E04C
:10007000DEBFCDBF0E944E000C945D000C940000CA
:1000800084B18C6284B92A9A81E58CBD08952A983E
:100090008EBD0DB407FEFDCF2A9A08950E94400040
:1000A00080E0C1E0C80F0E9447008FE39CE9019700
:0E00B000F1F700C000008C2FF4CFF894FFCFC2
:00000001FF
